S015000046696E616C5F50726F6A6563742E73726563EF
S11300000030002031010000C1000000C5000000E4
S1130010C1000000C1000000C1000000C1000000D8
S1130020C1000000C1000000C1000000C1000000C8
S1130030C1000000C1000000C1000000490B000025
S1130040C1000000C1000000C1000000C1000000A8
S1130050C1000000C1000000C1000000C100000098
S1130060550B0000C1000000C1000000C1000000E9
S1130070C1000000C1000000C1000000C100000078
S1130080C1000000C1000000C1000000C100000068
S1130090C1000000C1000000C1000000C100000058
S11300A0C1000000C1000000C1000000C100000048
S11300B0C1000000C1000000C1000000C100000038
S11300C0FEE7C046FEE7C04680221249124B920169
S11300D0585870B502435A508121104A10484900BB
S11300E0516042690139FF398A4342610269114210
S11300F008D15526AA2502240A4A9E509D5001691A
S11301000C42FAD00449034A07488B5803408B50E9
S113011070BDC046381000000070044000D0044098
S113012000F10F4004110000FFDFFFFFC046C0468E
S1130130FFF7CAFF344B354A354993608022354B6B
S11301409200585802435A50334A3449344899501B
S11301501A6834490A401A601958334A1140334A1C
S11301600A431A50324B33499A6C0A409A64DA6C47
S11301700A400021DA64304B304A1970242353704A
S113018074331370D078793B0340D3700123137117
S11301905171103193791942FCD10C21274A93797A
S11301A00B40082BFBD1402138335371234A9379F8
S11301B01942FCD0182313700C2220498B79134068
S11301C00C2BFBD11E4A1F4B9A421AD2013B991A9F
S11301D00023890801311C4C8900E058D0500433B5
S11301E08B42FAD1D318194A934208D80321D21A60
S11301F08A43191D5218002102C39342FCD100F016
S113020007F91300EFE7C0460000000000ED00E02E
S11302103810000000700440441000000000011079
S113022004100000FFFFF3FFFFFFFEFC00000101CC
S113023000900440FFF8FFFE0050064000400640D6
S113024000F0FF1F00F0FF1F140D00001FF0FF1F40
S1130250000000000000000000000000000000009A
S1130260000000000000000000000000000000008A
S1130270000000000000000000000000000000007A
S1130280000000000000000000000000000000006A
S1130290000000000000000000000000000000005A
S11302A0000000000000000000000000000000004A
S11302B0000000000000000000000000000000003A
S11302C0000000000000000000000000000000002A
S11302D0000000000000000000000000000000001A
S11302E0000000000000000000000000000000000A
S11302F000000000000000000000000000000000FA
S113030000000000000000000000000000000000E9
S113031000000000000000000000000000000000D9
S113032000000000000000000000000000000000C9
S113033000000000000000000000000000000000B9
S113034000000000000000000000000000000000A9
S11303500000000000000000000000000000000099
S11303600000000000000000000000000000000089
S11303700000000000000000000000000000000079
S11303800000000000000000000000000000000069
S11303900000000000000000000000000000000059
S11303A00000000000000000000000000000000049
S11303B00000000000000000000000000000000039
S11303C00000000000000000000000000000000029
S11303D00000000000000000000000000000000019
S11303E00000000000000000000000000000000009
S11303F000000000000000000000000000000000F9
S1130400FFFFFFFFFFFFFFFFFFFFFFFF7EF7FFFF81
S1130410F0B54E46DE46574645460023E0B58DB05E
S1130420002606930A9372B68027DA4BDA4AFF0055
S11304309958DA4D39439950C0218900A9648C46F2
S11304408021D748C9041C58214324241950D54974
S113045005960E60D44EA0468E60CC606446EC6473
S1130460444680254C619C586D01254302249D50CF
S1130470CE4D6F60CE4F7D6925437D618025444616
S11304801F586D043D431D50059DCA480560866094
S113049044611C3C0D618D61856104600C608021A8
S11304A09858890001439950C348C449C44C08650D
S11304B0C4484169214040244161C348195821433B
S11304C019508021985889010143A0209950BF49AF
S11304D0BF4C0A6EC000224002430A664A6E2240A4
S11304E0104348661221C020BA4AFF245170917803
S11304F00143C2209170B84980000A58A2433F3C8E
S113050022430A50802289385200FF380A500A6078
S113051088220E2152019950B04BB14A5A600722E9
S11305201A6062B6AF4EB048B346B04EB04A0B96AE
S1130530B04E0392B246B04EB04B0796B04EB14D9A
S11305400896B14EB14A09965E46D3468246B049F2
S1130550B04C0196002030BF1F781870002FFAD0DD
S113056028780297052807D8039E800030588746CC
S1130570D079800700D543E20888019E013080B21B
S11305808446088020783678032800D194E100D985
S11305908BE1012800D1A8E1022800D099E1894823
S11305A00069C00200D516E29B4881460020CC4574
S11305B001D903272770042E2CD85F46B600BE59F4
S11305C0B74601205646B6783602B446802636022F
S11305D0B44500DBB2E15646B678B0465646B67826
S11305E0B4464646F601B04647466E4E3761B146BC
S11305F00026B0464E464746B7616646F601B44605
S113060067466C4EB761012804D1019E03303070F7
S113061002980A9055265F4F80483E5055363E500A
S113062098E70120564676783602B446802636028C
S1130630B44500DBA2E156467678B446594EB0463E
S11306400026B14646464F463761B76166463602D4
S1130650B4466746574EB7610128DBD1019E02308C
S1130660307002980690D5E730005646F678360288
S1130670B44680263602B44500DB45E15646F6789A
S11306803602B4466746474E3761B0460026B44644
S113069046466746B761474EB7610128BAD1019E05
S11306A00130307002980590B4E70120059E002EB9
S11306B000D180E1069E002E00D1E7E10A9E002EC3
S11306C000D0EFE1564F574EB44680263602B0466E
S11306D0B146664602970496079E37806746089E91
S11306E037804746099E3780029E2E4F3E61049E06
S11306F0BE614E462F4FBE6101288BD10020019E62
S1130700307087E70020274F3861B861294FB861FE
S113071080E7D079800700D42EE7D079C00700D4D1
S1130720C9E10220287027E72A48C678B6062DD4E6
S1130730D67976072AD41F2616700B3656711036D2
S11307409671D779B046BC460427B94667464E46EB
S11307503743D771D679B44601266746B743D77174
S1130760D679B44602266746B743D771D679B446DC
S11307700826B14667464E463743D7718678B44655
S11307803026674637434646877006710420287032
S1130790F2E6C046007004403810000000A0044097
S11307A03C10000000A00340FFFF000000C0044014
S11307B0C0F00F400080034003010001009004409A
S11307C0FFFFEFFF00F00F403410000000D00440A2
S11307D0FFF8FFFF0060064000E100E010E000E0E9
S11307E080BB00001AF0FF1F08F0FF1F000D00007F
S11307F0D40C0000EC0C000004F0FF1F1EF0FF1FDF
S113080002F0FF1F19F0FF1F00F0FF1F10F0FF1F81
S11308101CF0FF1F1BF0FF1FDB050000041100008C
S113082055550000AA2A0000C048C678B6062CD444
S1130830D679760729D45646166001261671B14634
S11308400C3656712D369671D779BC460427B846B6
S1130850674646463743D771D67937004E46B74385
S1130860D771D679B44602266746B743D771D6798D
S1130870B44608266746B743D7718678B44630260F
S1130880674637433A26877006710120287073E65D
S1130890D079800700D46FE6D079504600781A28C2
S11308A000D13EE70320287066E6042811D1604693
S11308B0042826D800207EE69D48006984466746C1
S11308C00020FF0200D476E608800430207002384D
S11308D071E697480069844667460020FF0200D508
S11308E069E601270880277065E691480069C0021F
S11308F007D467460020042F00D85CE6022727703F
S113090059E60020207056E65646F678B146894EE0
S1130910B0460026B4464646674637614E4637021F
S11309204646B7616646844FBE61012800D071E631
S1130930019E01303070002005906BE65646B67873
S1130940B4465646B67802967A4EB0460026B1466C
S113095046464F4637616646F601B4464646674604
S1130960B761029EF701744EB761012800D051E6C9
S1130970019E0330307000200A904BE6564676788C
S1130980B44656467678B1466646F601B44667469E
S1130990684E3761B0464E46F7014646B7610026B9
S11309A0654FBE61012800D034E6019E02303070EC
S11309B0002006902EE6069E002E59D00A9E002E98
S11309C000D0B0E0802600273602B446B046B146D7
S11309D00496029780E60020088004302070042EDC
S11309E000D917E60B9FB000385887460020514FB6
S11309F0019E3861B861504FB8610130307009E62A
S1130A004A48C678B60600D5B6E5D6797607B44620
S1130A106746F60F002F00DAAEE557461760042745
S1130A20177156713A269671D779B046BC46042799
S1130A30B94667464E463743D771D679B446012640
S1130A406746B743D771D679B44602266746B7439B
S1130A50D771D679B44608266746B743D7718678E6
S1130A60B44630266746374346468770067183E5A9
S1130A700A9E002E0ED08026304F3602B446304EE9
S1130A800297B046B1466646049625E680272B4E6B
S1130A903F02F3E72A4F2B4EB846B446B9460496B4
S1130AA0029719E6802700263F02B446B846B946A5
S1130AB00496029710E6052028701C48C678B606EE
S1130AC000D559E5D6797607B4466746F60F002F68
S1130AD000DA51E5574617600427177156713A2614
S1130AE09671BC46D779B146B84667464646374301
S1130AF0D771D679B44601266746B743D771D679FC
S1130B00B44602266746B743D771D679B446082659
S1130B106746B743D77186783700302637434E4649
S1130B208770067128E5064F044ECDE50060064047
S1130B3000F00F4000A00340008003405555000022
S1130B40AA2A0000AAAA00000122014B1A707047C9
S1130B501EF0FF1F022070B55A4A5B49D378034345
S1130B60DBB2D3700B78032B53D03BD8012B00D1CD
S1130B7073E0022B63D10024544B554D18792C5744
S1130B800130844200D187E0621E52B22A70002CE8
S1130B9018D0002A00D187E0012A04D10825494C45
S1130BA0A0782843A0701879824200D182E01026F0
S1130BB01D68681C186043488478B44384700079C5
S1130BC0C0B22870002A39D10A700421DA798A4324
S1130BD00221DA71DA790A430121DA71DA798A4376
S1130BE0DA712BE0042B2AD1D478E40714D420251D
S1130BF09478AC43947000220A70344AD1799943B2
S1130C00D1710121D3790343D371D3798B43D37148
S1130C1014E0D378DB0738D52C4B0421DA798A43E6
S1130C200221DA71DA790A430121DA71DA790A43A5
S1130C302021DA71234A93788B43937070BD214A43
S1130C40D378DB07E8D421484379DBB21371C37945
S1130C501B0726D503230B70F0E7D0788343DBD042
S1130C6001201425194CA37903439078DBB228435F
S1130C709070137102230B702179154B0131197097
S1130C80082193788B439370D8E7104B1B78DBB221
S1130C90137104230B70D1E7D278D20700D473E721
S1130CA0BBE701230B70C9E72025064CA078A843B5
S1130CB0A07078E7102503488478AC4384700079E9
S1130CC080E7C0460060064018F0FF1F10F0FF1FC9
S1130CD006F0FF1F28080000900800002807000005
S1130CE078050000120700007005000004070000EA
S1130CF06A06000024060000C4050000AC060000DB
S1130D00EC0900006806000022060000C20500008D
S1070D10AA0600002B
S9030131CA
